:10000000F8FF002011040000FF270000FF27000078
:10001000FF270000FF270000FF270000FF27000048
:10002000FF270000FF270000FF270000FF27000038
:10003000FF270000FF270000FF270000FF27000028
:10004000FF270000FF270000FF270000FF27000018
:10040000FFFFFFFFFFFFFFFFFFFFFFFFFEFFFFFFFD
:1004100062B603F09FFEFEE72DE9F04FA1B08246E1
:1004200002AE002017461D46029170620DF144088D
:100430000AE017F8011B0298D0470290002800F04C
:10044000D482706A401C7062387808B9706ACEE253
:100450002528EED10020F06030617061B061F0615C
:10046000306201E040F0010017F8011F2029F9D0A7
:1004700023290DD02B2904D02D2906D030290AD0CC
:100480000CE040F0020080B2EEE740F00400FAE732
:1004900040F00800F7E740F01000F4E72A290DD1FA
:1004A00029680A1D2A600968F162002904D54942B9
:1004B00040F00400F16280B27F1C13E00021F16281
:1004C0000BE0F16A6FF00043994205D001EB810324
:1004D00002EB43013039F1627F1C3A78A2F130011E
:1004E0000A29EED339782E2903D04FF0FF31B162BB
:1004F0001EE017F8011F2A2906D129680A1D2A6063
:100500007F1C0968B16213E00021B1620BE0B16A9F
:100510006FF00043994205D001EB810302EB4301E8
:100520003039B1627F1C3A78A2F130010A29EED34A
:1005300030860FF6AC20397800F070FD08B117F85E
:10054000010B8DF83A009DF83A00682802BF39780F
:100550006829622005D06C2804BF38786C2803D144
:1005600071208DF83A007F1C11A8B0603978B1F184
:10057000250023D02038022840F2B980133800F03B
:10058000E1800B3800F07781401E00F02081401E92
:10059000022840F2AC80001F00F01981401F7BD080
:1005A000401E00F0CF80401E22D0C01E0BD0801E07
:1005B00000F0C880C01E00F0C58064E1F068411CF6
:1005C000F160252169E12868011D29600068B26A8F
:1005D0007060002A02D500F02DFD07E0002100F038
:1005E00045FD00281ABF7168401AB06A306156E1B3
:1005F0002868011D296000210068CDE900014FF045
:100600003C0E11A87060DDE9000111B908B9B26AA9
:10061000CAB10206120FA0EB02123032AEF1010392
:10062000D2B29E463A2AA8BF2732000903F8082012
:1006300040EA0170090908BF002804D0726811ABB4
:1006400073449A42E5D311A971447160CEF13C0024
:10065000B16A3061884207DA081AB0614FF6EF716B
:10066000308E084030861AE1002940F1188196F852
:10067000301001F01401102940F01181F16AF26884
:10068000891AB269891AA1EB000EBEF1010FC0F2FE
:100690000681C6F818E002E19DF83A00622818D0F9
:1006A000682806D06A280BD06C2819D0712807D08A
:1006B00016E02868011D29600068716A0180EEE07B
:1006C0002A68101D28601268706AC117C2E900010B
:1006D000E5E02868011D29600068716A0170DEE0AC
:1006E0002868011D29600068716A0160D7E02868E8
:1006F000C01D20F00700286000F108022A60D0E940
:100700000023CDE90023002B04D5F068421CF260E1
:100710002D220DE0308E820704D5F068421CF26075
:100720002B2205E0C00705D5F068421CF2602022AC
:1007300000F80820F06811AA8018706000A800F086
:10074000DDF9ACE09DF83A006C2808BF2A6811D0AA
:10075000712808BF2A6802D02A686A280AD1D21DE7
:1007600022F007022A60144604F108022A60D4E944
:10077000002303E0131D2B6000231268CDE9002342
:10078000682808BF92B207D0622808BFD2B203D04F
:10079000742818BF7A2802D10023CDE9002396F8E7
:1007A000300000075FD5DDE90023002B08BF002AD9
:1007B00059D041F02000782855D1F068302200F857
:1007C0000820401C421CF26000F808104BE09DF825
:1007D0003A0062280CD0682810D06A281AD06C28F9
:1007E00023D0712816D074281FD07A280CD01CE092
:1007F0002868021D2A6090F900201AE02868021D6E
:100800002A60B0F9002014E02868021D2A60002345
:1008100002680FE02868C01D20F00700286000F182
:1008200008022A60D0E9002304E02868021D2A603B
:100830000268D317CDE90023002B04DAF068421CCC
:10084000F2602D220DE0308E820704D5F068421C44
:10085000F2602B2205E0C00705D5F068421CF2606B
:10086000202200F80820F06811AA8018706000A803
:1008700000F0C0F813E0F068411CF16029680A1D1F
:100880002A60096809E0F068421CF260252200F83D
:10089000082021B1F068421CF26000F80810F06AEC
:1008A000F168401AB169401A3169401AF169401A79
:1008B0007169401A316AA0EB010996F830007F1C7B
:1008C000400710D420208DF84000002409E00123C7
:1008D00010AA00A9504600F06BFB002840F085806C
:1008E000641C4C45F3DBF4680DF1440B0AE01BF883
:1008F000011B0298D0470290002876D0706A401CF5
:100900007062641E002CF2D130208DF840004FF050
:10091000000BB46909E0012310AA00A9504600F0B9
:1009200047FB002861D10BF1010BA345F3DB3469D0
:10093000D6F804B00AE01BF8011B0298D0470290D9
:10094000002852D0706A401C7062641E002CF2D1E4
:1009500030208DF840004FF0000BF46909E00123CE
:1009600010AA00A9504600F023FB00283DD10BF14E
:10097000010BA345F3DB30697168746900EB010B6F
:1009800009E01BF8011B0298D047029068B3706A17
:10099000401C7062641E002CF3D130208DF84000A2
:1009A0004FF0000B346A08E0012310AA00A950465A
:1009B00000F0FEFAC8B90BF1010BA345F4DB96F881
:1009C000300040077FF540AD20208DF84000002426
:1009D00000E0641C4C45BFF637AD012310AA00A906
:1009E000504600F0E5FA0028F3D04FF0FF3021B078
:1009F000BDE8F08F2DE9FA4E05460A462F696F2AA9
:100A000008BF082405D041F02000782814BF0A242C
:100A10001024D5E900013C2681468B46642A18BF84
:100A2000692A05D1002903DAD9F100096BEB4B0BD8
:100A3000BBF1000F08BFB9F1000F0CD1286B50B902
:100A4000082C36D195F83800000732D530203B26E7
:100A500087F83B002DE0E31748465946224600F050
:100A600031FBA4FB0023A9EB02023032A6F1010AFC
:100A7000D2B256463A2A03DB9DF80030513B9A1811
:100A80000AF8072081465FEA010B08BFB9F1000FA1
:100A900003D0E868F1198842DDD3082C09D195F814
:100AA0003800000705D5F05D302802D0761E3020D2
:100AB000F055C6F13C00A861F119E960296B884244
:100AC00008DA081A28624FF6EF71288F0840288745
:100AD000BDE8F38E00290ED595F8381001F0140109
:100AE000102908D1696B6A69891A2A6A891A081A51
:100AF0000128A8BF2862BDE8F38E00002DE9F34F5E
:100B00008BB0D0E90089006B01AF002848BF0620F8
:100B100005D404BF41F02000672802D101200B99C1
:100B2000086340F2FF720B984168C1F30A5090428B
:100B300020D1080302BF0B98006800280AD10B9946
:100B4000032088619DF8300061381A2858D30FF2CD
:100B5000A44109E00B99032088619DF830006138B9
:100B60001A284AD30FF284410B98C068032200F080
:100B700021FB00E1012807DA0B9800F056FB012861
:100B800002DB00230026EDE00B9A526840F2FE31B2
:100B900061F31E520B994A6040F2FE31461A4046FC
:100BA00049460022002300F061FB38BF89F000496C
:100BB00036B247F2975070434949DFF828B190FBAD
:100BC000F1F636B2C6F107079246012F1BDBF80794
:100BD00007D552465B464046494600F05FFB8046DB
:100BE00089467F105046594652465B4600F056FBF8
:100BF00082468B46002FEAD126E00FF2EC31B3E7B4
:100C00000FF2EC31B0E77F420024374D12E0F807D5
:100C100007D552465B462046294600F03FFB044676
:100C20000D467F105046594652465B4600F036FB53
:100C300082468B46002FEAD14046494622462B4643
:100C400000F0FEFB804689469DF8300040F020050C
:100C5000662D0CBF06F10A0006200B99096B471898
:100C6000142FA8BF132730208DF804000DF10504C0
:100C7000DFF878B0012F3BDB4046494600F004FD29
:100C8000014604F1080204234FF00A0CB1FBFCFCFE
:100C90000CEB8C04A1EB4401303102F8011D0A2158
:100CA000BCFBF1FE0EEB8E04ACEB44043034714619
:100CB00002F8014D5B1EE7D1083F02F10804012F45
:100CC000D8DB00F0F7FC02460B464046494600F0F0
:100CD000FFFC00225B4600F0E1FA80468946CBE744
:100CE000A0860100000024400000F03F84D7974117
:100CF0000DF10500201A0DF1050702E0401E761ED9
:100D00007F1C39783029F9D0662D02D136B2711C9A
:100D100003E0652D0CBF012100210B9A126B8B188B
:100D20001BB29842B8BF03461BB219001AD48142C5
:100D300004DAC85D3528A8BF392000DA3020CA1986
:100D4000521E00E05B1E12F80159491E8542F9D07F
:100D5000392802D1C85D401CC855002902D57F1E24
:100D60005B1C761C36B29DF830100B9800961BB2B7
:100D70003A4600F003F80DB0BDE8F08F2DE9F047DA
:100D800086B006468A4690461D4600F07EFD406AC3
:100D9000376B90F80090012D02DA01250FF25828E8
:100DA0004AF02000BDF93840662808BF641C13D003
:100DB000672840F0878014F1040F72DBBC4270DAC0
:100DC00096F83800641C000702D4BD42B8BF2F4615
:100DD00024B23F1B48BF0027F068B16924B2012C40
:100DE00021DA30234A1C0B54012F03DA96F838100D
:100DF000090702D502F80090521CB261E742B8BF61
:100E00007C4224B26142E7197162AF42B8BF3D46ED
:100E10002DB2F5612A46B3694146181800F0CAF9A7
:100E2000781BB062ADE00818A54216DA2A464146A2
:100E300000F0C0F9B1696918B161601B7062012FDF
:100E400003DA96F83800000705D5F06801F800903D
:100E5000F069401CF061B76293E02246414600F021
:100E6000A9F9B06920182D1B012F03DA96F8381064
:100E7000090703D5F16800F80190401C2DB2B0615C
:100E8000AF42B8BF3D46F3682DB22A4604EB0801D5
:100E9000C01800F08FF9B0692818B061781B706233
:100EA0006FE0BD4204DA96F83810090758BF2F46A4
:100EB0007F1E48BF0027BAF1670F0CBF4FF0650ACD
:100EC0004FF0450AB169F06818F8013B0B544A1C11
:100ED000012F05DA96F83810090758BFB26115D509
:100EE00002F80090531CB361012F0FDB6D1E2DB271
:100EF000AF42B8BF3D462DB22A464146181800F011
:100F000059F9B0692818B061781B7062B069F1684E
:100F100000EB0108200008F801AB03D42B2008F8EF
:100F2000010B03E02D2108F8011B6442002502AFEC
:100F300008E00A2200A800F0C1FC019807F8010BA4
:100F40006D1C009C21B20129F3DA022D06DA4AF069
:100F50002000652804BF302008F8010B4DB930206F
:100F600008F8010B07E06D1E02A8285C303008F875
:100F7000010B012DF7DAB069F1684018A8EB000009
:100F8000F06196F8380000F0140010280DD1706957
:100F9000B1690818716A0818F1690818B16A081867
:100FA000716B8842BCBF081A306206B0BDE8F0879A
:100FB000F8B504460D4616461F46002004E0E86AD0
:100FC000401CE8627F1E002047B116F8011BA8688C
:100FD000A047A8600028F2D14FF0FF30F2BD00001A
:100FE000686A6C747A4C00006E616E004E414E006F
:100FF000696E6600494E4600300050F8041B61B12E
:1010000050F8042BD30744BFA9F101039A18002319
:1010100042F8043B091FFAD1EFE770470278C9B2E2
:101020008A421AB11CBF10F8012FF9E718BF00203F
:101030007047000000F10103810704D010F8011B84
:1010400089B18107FAD10268B2F10131914311F0FF
:10105000803F04BF50F8042FF6E710F8011B11B1D0
:1010600010F8011BFBE7C01A70470000C9B28307E4
:1010700006D0521E22D310F8013B9942F7D11FE04F
:10108000083A13D302F1040241EA012141EA014185
:1010900050F8043B121F21BF4B40A3F1013C2CEA46
:1010A000030C1CF0803FF3D0C9B2001F083210F8C7
:1010B000013B521E28BF91EA030FF8D818BF012048
:1010C000401E70471B4213D1094236D12AB18446D3
:1010D000B0FBF2F002FB10C2704700F0F7BBFCD38C
:1010E0000022002370470B000200002100207047FF
:1010F000904271EB030CF6D370B5B1FA81F4B3FAF8
:1011000083F52C1BA340C4F1200532FA05F63343C6
:10111000A2405FF00046E64002E05B085FEA320270
:10112000841A71EB030524BF204629467641F4D387
:1011300002000B003000002170BD012ACFD970B52C
:10114000140C20D0B1FA81F4B2FA82F5C4F1200473
:101150006419B4F12006D6D3B2405FF00044F440E5
:10116000002502E052085FEA3303C61A71EB020E53
:1011700024BF3046714664416D41F3D302000B0039
:101180002000290070BD0C46B1FBF2F102FB1145B5
:101190002D0445EA1045B5FBF2F402FB145580B26C
:1011A00040EA0545B5FBF2F002FB105240EA04406C
:1011B00070BD000062B38B0708D0521E11F8013BCE
:1011C00000F8013B00F024808B07F6D1830740F044
:1011D000208000BF103A07D330B4B1E83810103A7D
:1011E000A0E83810F9D230BC530724BFB1E808108A
:1011F000A0E8081044BF51F8043B40F8043BD20774
:1012000024BF31F8022B20F8022B44BF0B78037067
:101210007047083A07D3B1E80810083A40F8043B91
:1012200040F804CBF7D25307E4E730B4436803F047
:10123000004201211B031B0B436004BF0368002B0A
:1012400008D10DE00368DD0F45EA440444605B000B
:101250000360491E4468E302F4D523031B0B43607B
:1012600043681A434260084630BC70474FF4001C84
:101270001CEB410F94BF1CEB430F09E041EA030C48
:1012800050EA4C0C52EA0C0C03D2994208BF90422F
:10129000704714BF8B42824270470000B0B581EAAC
:1012A000030C0CF0004C40F2FF7515EA11541DBF01
:1012B00015EA1357AC42AF4239E0E41923EA45532B
:1012C00043F48013C90241F0004141EA505EC70275
:1012D0001100A7FB020200284FF00000EEFB0120E6
:1012E0004FF00001E3FB072118BF42F00102401854
:1012F00000214941E3FB0E01A4F580640F0302D2F3
:1013000052004041494154F101046CDD470872F13B
:10131000004250F1000051EB0451A1F580115CBF77
:1013200041EA0C01B0BD4CEA05510020B0BD05EA10
:101330001357AC4214BFAF4241E050EA410E1CBF0C
:1013400052EA430E02E061460020B0BD24423C4414
:101350001BD15FEA070EF6D0090302BF0146002049
:10136000AEF1140EB1FA81F7AEEB070401FA07FEF5
:101370000C37C7F1200100FA07F7C8404EEA000E0B
:1013800023EA455343F48013A2E733F00043B3FA52
:1013900083F704BFB2FA82FE77440B3FE41BB7F138
:1013A000200E2FBF02FA0EF3BB40C7F1200E22FA27
:1013B0000EFE38BF43EA0E03BA40641C82E750EACF
:1013C000410E14BF52EA430E6FF000014FF40017B4
:1013D00017EB430F8ABF194617EB410FB5E74CEAED
:1013E00005510020B0BDD4F10104B4F120070FDA9B
:1013F000C4F12007520828BF42F0010210FA07F595
:1014000001FA07F7E1BF2A43E0403843E1400FE02B
:10141000352C98DCC7F1200452EA400220FA07F28A
:1014200018BF42F0010231FA07F0A1400A4300213F
:1014300072F1004250F1000051EB0C01B0BD000010
:10144000F0B540F2FF7581EA030C0CF0004C15EA90
:1014500011541DBF15EA1357AC42AF42E5E0BC4141
:10146000C1F31301C3F31303801A994143F48013AA
:1014700004D2641E4000494180185941C90241EA22
:101480005051B1FBF3F603FB1611A2FB0675D7EB27
:10149000C020A94102D2761E80185941C90241EAF2
:1014A0005051B1FBF3FE03FB1E11A2FB0E75D7EBEF
:1014B000C020A94103D2AEF1010E80185941890222
:1014C00041EA9051760546EA8E2EB1FBF3F603FB16
:1014D0001611A2FB0675D7EB8020A94102D2761E19
:1014E00080185941C90241EA50514EEA060EB1FB3B
:1014F000F3F603FB1611A2FB0675D7EBC020A9413A
:1015000002D2761E80185941C90241EA5051B1FBFE
:10151000F3F703FB1711A2FB0735D3EBC020A9415A
:1015200067F100070CBF004247F0010766F3D527BB
:101530004FEA1E31B80814F5806412DDBD0775F15D
:10154000004250EB0E5051EB045111F5801F5CBF6F
:1015500041EA0C01F0BD4CF07F6141F0E041002018
:10156000F0BDBD076D0840EA0E5041F48011D4F182
:101570000104B4F120060ADAC4F120060200E040BA
:1015800001FA06F3E1401843B24015430EE0342C53
:1015900013DCC6F1200445EA40056D0820FA06F286
:1015A000154321FA06F0A1400D43002175F10042D8
:1015B00050F1000051EB0C01F0BD00205FEA0C017E
:1015C000F0BDCFB992185B41B3FA83F704BFB2FA0A
:1015D00082F6BF190B3FB7F120062FBF02FA06F3C0
:1015E000BB40C7F1200622FA06F638BF3343BA40A3
:1015F0001CB1E419641E33E77F4231F00041B1FAB7
:1016000081F404BFB0FA80F6A4190B3CB4F12006B3
:101610002FBF00FA06F1A140C4F1200620FA06F619
:1016200038BF3143A0403C1B1AE7AC421ABF05EA61
:101630001357AF4212E050EA41061CBF52EA43067C
:10164000BFE750EA4107304661461CBF41EA0551F9
:10165000F0BD52EA430C08BFC143F0BD00204FF477
:10166000001616EB410F98BF16EB430F08BF16EBA1
:10167000410F24BFC14305E016EB430F0CBF614689
:101680004CEA0551F0BD0000400D40EAC120490080
:1016900080F00D8040F00040490DA1F58061491CAB
:1016A00005D4D1F11F0154BFC840C01770474FF097
:1016B00000007047010000BF09D0B0FA80F18840F7
:1016C000C91CC1F58461090501EBD02140057047B3
:1016D00070B44FF0004591EA030F44BF6B4000F037
:1016E000F7B800BF841A71EB030604D26E40001BEA
:1016F000B141121973414FF4001C1CEB410F34BF70
:101700007CEB430684E00C0DA4EB1356362E7DDCF7
:10171000012E43DC45EAC32343EA525312BFD202EF
:1017200092025B08240545EAC12141EA5051D2EBFF
:10173000C020994125D407D1B0FA80F610FA06F1FD
:1017400064D00020203608E0B1FA81F6B140C6F13D
:10175000200220FA02F21143B0404FEAF474B4EBD5
:10176000465434F001064FEA74040AD8D6F5001640
:10177000760D04F00044F04061FA06F25040F1406A
:101780004840C00A40EA415021F0004128BF5FEACA
:10179000500550F1000044EBD12137E045EAC32366
:1017A000DB0A45EAC121C90AB6F120050EDD42EA8D
:1017B0000242120CC5F1200603FA06F6EB4042EA9B
:1017C00006056D42984161F100010DE062FA06F5EF
:1017D000F240554063FA06FC82EA0C02F3405A409C
:1017E0006D42904161EB030111F4801F05D1641E2D
:1017F000620502D06D004041494121F48011430847
:1018000075F1004350F1000041EB045170BC70478A
:101810001CEB410F15D223F0004352EA43060BD0D4
:101820004FEA4C0CBCEB410F04D80C0D661E342E55
:10183000B7DDEBE7801A994150EA410608BF002165
:10184000E4E708BF1CEB430F28BF6FF00001DDE7A2
:1018500080B5134800F0A6F80FF24801016041601E
:101860008160C1600161416181610FF23C024262AD
:101870008162C162016341630FF2300282630FF241
:101880003402C2630164416401BD10B5044800F034
:1018900089F80446206808B9FFF7DAFF204610BD32
:1018A000A40EFF1F000000002E00000066616C7394
:1018B00065000000747275650000000091FBF2F392
:1018C00003FB1211C0E900317047000070470000AF
:1018D000841A71EB030603D2001BB1411219734144
:1018E0004FF4001C1CEB410F34BF7CEB430443E07E
:1018F0000C0DA4EB1356352E50DC45EAC323DB0A4E
:1019000045EAC121C912B6F120050DDD63FA05F6DD
:10191000EB4086EA0305124218BF45F00105C018E6
:1019200051F100010CD213E062FA06F5F240554085
:10193000F3415A40B340F3405A408018594107D30D
:1019400049085FEA30005FEA350528BF45F0010528
:1019500001F58011420875F1004250F1000041EBA1
:10196000045170BC4FF4001C1CEB410F38BF704792
:101970000020090D090570471CEB410F10D252EAF7
:1019800043060BD0BCEB410F05D80C0DAB43661ED4
:10199000342EB5DD02E0AB438018594170BC70476E
:1019A00070BC704770470000AA050B00FA00FA00EF
:1019B00000B0034000B00B40000000000000000039
:1019C0000000000000000000000000000000000017
:1019D0000000000000004E6F6E4D61736B61626C21
:1019E0006500000000486172644661756C74000017
:1019F000000000004D656D4D616E6167656D656E3F
:101A00007400004275734661756C7400000000003C
:101A1000000055736167654661756C7400000000D5
:101A200000000000000000000000000000000000B6
:101A300000000000000000000000000000000000A6
:101A40000000000000000000000000000000000096
:101A5000000000000000000000000000005356439A
:101A6000616C6C00000000000000000044656275BD
:101A7000674D6F6E69746F72000000000000000017
:101A80000000000000000000000050656E64535626
:101A90000000000000000000005379735469636B7C
:101AA0000000000000000000444D41300000000034
:101AB00000000000000000444D4131000000000023
:101AC000000000000000444D413200000000000012
:101AD0000000000000444D41330000000000000001
:101AE00000000000444D41340000000000000000F0
:101AF000000000444D4135000000000000000000DF
:101B00000000444D413600000000000000000000CD
:101B100000444D41370000000000000000000000BC
:101B2000444D413800000000000000000000004467
:101B30004D41390000000000000000000000444D4D
:101B400041313000000000000000000000444D4121
:101B5000313100000000000000000000444D413120
:101B60003200000000000000000000444D4131330D
:101B700000000000000000000000444D413134002E
:101B8000000000000000000000444D41313500001D
:101B90000000000000000000444D415F4572726F7C
:101BA000720000000000004D434D000000000000E6
:101BB0000000000000004654464C000000000000F9
:101BC0000000000000526561645F436F6C6C6973D4
:101BD000696F6E004C56445F4C5657000000000081
:101BE0000000004C4C570000000000000000000006
:101BF00000005761746368646F67000000000000B4
:101C000000524E47000000000000000000000000ED
:101C1000493243300000000000000000000000498D
:101C2000324331000000000000000000000053506B
:101C3000493000000000000000000000005350493F
:101C40003100000000000000000000005350493245
:101C5000000000000000000000000043414E305F23
:101C60004F525F4D425F6275660043414E305F42A6
:101C700075735F4F666600000043414E305F4572EA
:101C8000726F72000000000043414E305F54785F75
:101C90005761726E696E6743414E305F52785F578D
:101CA00061726E696E6743414E305F57616B655F6D
:101CB00055700000005265736572766564353100B9
:101CC000000000005265736572766564353200006D
:101CD00000000043414E315F4F525F4D425F6275DD
:101CE000660043414E315F4275735F4F6666000088
:101CF0000043414E315F4572726F72000000000078
:101D000043414E315F54785F5761726E696E67432D
:101D1000414E315F52785F5761726E696E67434121
:101D20004E315F57616B655F5570000000526573FF
:101D30006572766564353900000000005265736590
:101D40007276656436300000000000554152543010
:101D50005F52585F54580000000055415254305FA4
:101D600045525200000000000055415254315F526C
:101D7000585F54580000000055415254315F45529D
:101D80005200000000000055415254325F52585F2B
:101D900054580000000055415254325F45525200E1
:101DA000000000000055415254335F52585F5458B0
:101DB0000000000055415254335F4552520000006C
:101DC00000000055415254345F52585F545800008F
:101DD000000055415254345F45525200000000004B
:101DE0000055415254355F52585F5458000000006E
:101DF00055415254355F45525200000000000041E9
:101E00004443300000000000000000000000414496
:101E100043310000000000000000000000434D506E
:101E2000300000000000000000000000434D503171
:101E30000000000000000000000000434D50320090
:101E40000000000000000000000046544D3000007B
:101E500000000000000000000046544D310000006A
:101E6000000000000000000046544D320000000059
:101E700000000000000000434D540000000000007E
:101E80000000000000005254430000000000000069
:101E90000000000000526573657276656438330097
:101EA0000000000050495430000000000000000015
:101EB0000000005049543100000000000000000004
:101EC00000005049543200000000000000000000F3
:101ED00000504954330000000000000000000000E2
:101EE0005044423000000000000000000000005597
:101EF0005342300000000000000000000000555375
:101F000042444344000000000000000000454E45EC
:101F1000545F313538385F54696D6572454E4554AC
:101F20005F5472616E736D69740000454E45545F75
:101F300052656365697665000000454E45545F450E
:101F400072726F72000000000049325330000000CE
:101F5000000000000000000053444843000000005F
:101F60000000000000000044414330000000000079
:101F70000000000000004441433100000000000068
:101F80000000000000545349300000000000000031
:101F9000000000004D43470000000000000000006A
:101FA0000000004C5054696D657200000000000094
:101FB000000052657365727665643130320000004E
:101FC00000504F525441000000000000000000008B
:101FD000504F52544200000000000000000000502A
:101FE0004F52544300000000000000000000504F1A
:101FF00052544400000000000000000000504F5206
:1020000054450000000000000000000052657365A8
:102010007276656431303800000000526573657275
:102020007665643130390000000052657365727660
:102030006564313130000000005265736572766569
:102040006431313100000000526573657276656459
:10205000313132000000005265736572766564317B
:10206000313300000000526573657276656431316A
:102070003400000000526573657276656431313555
:102080000000000052657365727665643131360078
:102090000000005265736572766564313137000067
:1020A0000000526573657276656431313800000056
:1020B0000052657365727665643131390000000045
:1020C000008003400090034000800B4000900B40D4
:1020D00000F00F4040F00F4080F00F40C0F00F4084
:1020E00000F10F4066000A1D32000701640007106E
:1020F0006E000406780004088200040A8C00040CB8
:102100009600040EA0000410AA000412B4000414E7
:10211000BE000416C8000418D200041ADC00041C17
:10212000E100041DE600041EEB00041FF400031789
:10213000FA000318130101062C010214000109081A
:102140000090044000A0044000B0044000C00440DF
:1021500000D0044000A0064000B0064000C0064089
:1021600000D0064000A00E4000B00E406A6E6B6CBE
:10217000676D4E4F6F9A1140020401014C0EFF1F14
:102180009C0EFF1F4C0EFF1F4C0EFF1F4C0EFF1F1F
:102190001D0CFF1F040CFF1F0000000000000000CA
:1021A000000000000000000000000000000000002F
:1021B00000000000000000000000000038B504002E
:1021C0000D0064B2002C06D0022C69D04CD3032C35
:1021D00000F08280C7E0DFF86004006850F0807093
:1021E000DFF8541408606DB2002D0BD0022D15D00D
:1021F0000ED3042D1ED017D3062D27D020D3072DA4
:102200002AD02FE04FF48061412000F021FA2AE02B
:102210004FF48061422000F01BFA24E04FF480610B
:10222000432000F015FA1EE04FF48061442000F0D6
:102230000FFA18E04FF44071072000F009FA12E09D
:102240004FF48061652000F003FA0CE04FF48061E8
:10225000662000F0FDF906E04FF48061672000F091
:10226000F7F900E07FE07EE0DFF8CC03006850F093
:102270000070DFF8C41308606DB2002D02D0012D8C
:1022800006D00BE04FF440710C2000F0E1F906E0BD
:102290004FF440710D2000F0DBF900E063E062E0F4
:1022A000DFF89803006850F08070DFF89013086042
:1022B0006DB2002D02D0012D06D00BE04FF440711D
:1022C000322000F0C5F906E04FF440710B2000F019
:1022D000BFF900E047E046E0DFF86003006850F037
:1022E0000070DFF8581308606DB2002D0BD0022D7E
:1022F00015D00ED3042D1ED017D3062D27D020D3F2
:10230000072D2AD02EE04FF4C061852000F0A0F9FF
:1023100028E04FF4C061862000F09AF922E04FF4E3
:10232000C061872000F094F91CE04FF4C061882060
:1023300000F08EF916E04FF4C061892000F088F9B2
:1023400010E04FF4C0618A2000F082F90AE04FF4F7
:10235000C0618B2000F07CF904E04FF4C0618C2058
:1023600000F076F9FFE731BD2DE9F84F04000D00CC
:1023700016001F0064B2002C11D064B2012C02D0F0
:1023800064B2022C02D16DB2022D08DB64B2032CC0
:1023900005D04FF4C371DFF8A80200F0C6F9290098
:1023A00049B2200040B2FFF709FFDFF89802006849
:1023B0004FF47A71484380465FEA1840B0FBF6F06C
:1023C0008146002082461FFA89F959FA0AF001284D
:1023D00002DB1AF1010AF6E75FFA8AFABAF1080F8E
:1023E00005DB40F2A111DFF8580200F09EF938FA3F
:1023F0000AF0B0FBF6F081461FFA89F964B2DFF803
:10240000480240F8249064B2002C05D0022C1BD066
:102410000ED3032C24D02FE01FFA89F919F1010003
:1024200000FB07F04FF47A71B0FBF1F0834623E034
:102430001FFA89F919F1010000FB07F04FF47A71D6
:10244000B0FBF1F0834617E01FFA89F919F101009A
:1024500000FB07F04FF47A71B0FBF1F083460BE01C
:102460001FFA89F919F1010000FB07F042F210711F
:10247000B0FBF1F08346FFE76DB264B2DFF8CC0148
:1024800050F8240010EBC5006DB264B2DFF8BC1147
:1024900051F8241011EBC501C96831F00401C16085
:1024A0006DB264B2DFF8A40150F8240010EBC5004F
:1024B0002821C1605FFA8AFA1AF0070050F008007C
:1024C00064B2DFF8881151F8241008601FFA89F906
:1024D00064B2DFF8780150F82400C0F808900020BA
:1024E00064B2DFF8681151F82410C8646DB264B2A8
:1024F000DFF8580150F8240010EBC5001FFA8BFBE1
:10250000C0F810B0002064B2DFF8401151F8241078
:102510004860BDE8F18F2DE9F04104000D00160080
:102520005FF0000864B2002C11D064B2012C02D01C
:1025300064B2022C02D16DB2022D08DB64B2032C0E
:1025400005D040F2E711DFF8F80000F0EEF864B2D1
:10255000002C05D0022C17D00CD3032C1ED028E061
:10256000B6F57A7F05D940F2ED11DFF8D40000F01E
:10257000DCF81EE0B6F57A7F05D940F2F111DFF8FC
:10258000C00000F0D2F814E0B6F57A7F05D940F229
:10259000F511DFF8AC0000F0C8F80AE042F2117063
:1025A000864205D34FF4FD71DFF8940000F0BDF8CA
:1025B000FFE764B2DFF8900050F82400804664B270
:1025C000002C05D0022C17D00CD3032C1ED027E0F2
:1025D00018F1010000FB06F04FF47A71B0FBF1F046
:1025E00007001DE018F1010000FB06F04FF47A71BE
:1025F000B0FBF1F0070013E018F1010000FB06F05A
:102600004FF47A71B0FBF1F0070009E018F1010016
:1026100000FB06F042F21071B0FBF1F00700FFE79B
:102620006DB264B2DFF8240050F8240010EBC5004E
:102630000761BDE8F08100003C8004403080044028
:10264000DC440000480EFF1F180EFF1F280BFF1F61
:1026500010B4294A12684FF40073C0B24409A34071
:102660001A43254B1A60C0B24211244B53F8222062
:10267000012310F01F04A340C2F8A030C0B210F034
:102680001F02C0B243111D4C54F8233043F82210EE
:1026900010BC704710B4184A12684FF40073C0B2EF
:1026A0004409A3401A43144B1A60C0B24211134BA1
:1026B00053F82220012310F01F04A340C2F8A030D9
:1026C00031F4E061C0B210F01F02C0B243110B4CF4
:1026D00054F8233053F8222012F4E0621143C0B2C0
:1026E00010F01F02C0B24311044C54F8233043F8D9
:1026F000221010BC7047000038800440A80BFF1F58
:10270000DFF800F0510CFF1FDFF800F0750CFF1F21
:10271000BFF34F8F4648006810F4E0604549084316
:1027200043490860BFF34F8FFEE738B504000D0042
:10273000002000F08DF82A0021003F4800F0C0F88A
:10274000002000F0A2F84FF47A7000F0E6F8F2E70B
:1027500038B504000D00210049B2012000F01AFA3A
:10276000200032BD10B50024042000F043FA0420FC
:1027700000F076FA002841D1002000F069F804202A
:1027800000F06EFA012801D101200400002000F0C1
:102790007CF82A4800F094F84FF4FA7000F0BDF885
:1027A000E4B2012CEBD1042000F05AFA0028E6D163
:1027B000042000F055FA002806D1002000F065F84A
:1027C000642000F0AAF8F3E7042000F049FA012899
:1027D00006D1002000F059F8322000F09EF8F3E70F
:1027E000174800F06DF8FFF78BFF642000F095F8B4
:1027F0000020FFF789FFFFF78BFFC0E710BD10B582
:1028000010480468012000F023F8012000F03DF892
:10281000E4B20F200C4900FB0412E4B221000B4883
:1028200000F04EF84FF47A7000F077F8EDE7000012
:102830000CED00E00400FA05744600004447000077
:10284000A846000004ED00E02004FF1F1046000031
:1028500010B5040064B2042C07DA0122012164B22D
:102860001648205C00F014FA0EE00420040020005A
:10287000441E40B2002807D00122012164B20F4853
:10288000205C00F005FAF2E710BD10B5040064B258
:10289000042C05DA64B20948205C00F050FA0CE020
:1028A000042004002000441E40B2002805D064B279
:1028B0000248205C00F043FAF4E710BDDC0BFF1F78
:1028C0000EB400B582B003A90091024600AB01210D
:1028D000034878440A30FDF79FFD06BC5DF810FB05
:1028E000411E000010B50400002C15D0B4F1807F0B
:1028F00003D329210F48FFF718FF00200E49086075
:102900000E48046000200E49086005200A4908604E
:1029100009480068C003FBD510BD10B504002000B5
:10292000441E002804D007480068FFF7DBFFF6E7E5
:1029300010BD00009C43000010E000E014E000E047
:1029400018E000E0400EFF1F012110F01F0291402F
:1029500040B24209DFF8803243F8221070472DE977
:10296000F84304000D0064B2002C08D0022C2CD0D7
:1029700018D3042C4FD03BD3052C5FD071E0DFF887
:102980005C02006850F48060DFF8501208604FF479
:1029900040713020FFF75CFE4FF440713120FFF7AB
:1029A00057FE5EE0DFF83402006850F40060DFF8A4
:1029B0002C1208604FF440718120FFF749FE4FF45C
:1029C00040718020FFF744FE4BE0DFF81002006802
:1029D00050F48050DFF8041208604FF44071632017
:1029E000FFF736FE4FF440716220FFF731FE38E00A
:1029F000DFF8E801006850F40050DFF8E0110860EB
:102A00004FF440715020FFF723FE4FF440715120E6
:102A1000FFF71EFE25E0DFF8C801006850F4806073
:102A2000DFF8BC1108604FF440714E20FFF710FE34
:102A30004FF440714F20FFF70BFE12E0DFF8A001CA
:102A4000006850F40060DFF8981108604FF440719E
:102A50008920FFF7FDFD4FF440718820FFF7F8FD56
:102A6000FFE764B2DFF87C0150F82400C07810F072
:102A7000F30064B2DFF86C1151F82410C87064B22E
:102A8000DFF8600150F82400807864B2DFF8541158
:102A900051F82410887064B2002C02D064B2012C6A
:102AA00007D1DFF8440100684FF47A71484381464A
:102AB00006E0DFF8380100684FF47A714843814638
:102AC0002801B9FBF0F00600B6B2B6F5005F02DBF4
:102AD00041F6FF700600B9FBF5F0B6B2B0EB061098
:102AE0000700BFB2202F03DBDC214148FFF71DFEAA
:102AF00064B23C4850F82400007810F0E0008046B2
:102B0000B6B2300A10F01F0050EA080064B235492E
:102B100051F82410087064B2324850F8240046700E
:102B200064B2304850F82400807A10F0E00080460B
:102B300017F01F0050EA080064B22A4951F8241027
:102B4000887264B2274850F82400007C50F0880056
:102B500064B2244951F82410087464B2214850F832
:102B60002400C07850F00C0064B21E4951F82410C3
:102B7000C870BDE8F18340B21A4A52F82020127999
:102B80009206F8D540B2174A52F8202092F9072051
:102B90000A70704740B2134A52F820201279120688
:102BA000F8D540B20F4A52F82020D171704710B5C5
:102BB000040064B20B4850F82400C07850F02000A4
:102BC00064B2084951F82410C87064B260002D3016
:102BD00040B2FFF7B9FE10BD00E100E034800440D0
:102BE00028800440BC0BFF1F400EFF1F480EFF1F34
:102BF0000844000010B5040064B2082C0DDA00226D
:102C0000002164B22148205C00F042F8032164B244
:102C10001E48205CFFF73EFD14E008200400200061
:102C2000441E40B200280DD00022002164B2174893
:102C3000205C00F02DF8032164B21448205CFFF7FB
:102C400029FDECE710BD10B5040064B20F48205C0C
:102C500000F091F8002801D1002000E0012010BD13
:102C600010B50400200040B2FFF7EDFF00280AD1A4
:102C70000A20FFF752FE200040B2FFF7E4FF0028D1
:102C800001D1002000E0012010BD0000D40BFF1F87
:102C900070B504000D0016004FF480712000C0B222
:102CA000FFF7D6FC6DB2002D11D1E4B2601140499E
:102CB00051F82000E4B261113D4A52F821104969EF
:102CC000012214F01F039A409143416136E0E4B2BF
:102CD0006011374951F82000E4B26111344A52F8CA
:102CE00021104969012214F01F039A4011434161E8
:102CF000F6B2002E11D1E4B260112D4951F8200036
:102D00000068012114F01F0291408843E4B2611170
:102D1000274A52F82110086010E0E4B260112449FB
:102D200051F820000068012114F01F02914008436F
:102D3000E4B261111E4A52F82110086070BD10B54E
:102D40000400E4B260111A4951F82000406914F0FF
:102D50001F01C840C00703D47B211648FFF7E5FCDC
:102D6000E4B26011124951F82000012114F01F0251
:102D70009140C16010BD10B50400E4B260110C496F
:102D800051F82000406914F01F01C840C00703D566
:102D90008C210848FFF7C9FCE4B26011044951F8DE
:102DA0002000006914F01F01C84010F0010010BDA0
:102DB000380BFF1F3043000008210122DFF8583490
:102DC0001A600022DFF858341A600A00511ED2B28D
:102DD000002A15D0020604D50122DFF840341A601B
:102DE00003E00022DFF834341A600122DFF83034C7
:102DF0001A6000BF0022DFF828341A604000E4E7C0
:102E00007047000008210022DFF80C341A6000220D
:102E1000DFF80C341A600A00511ED2B2002A15D015
:102E2000020604D50122DFF8F4331A6003E0002221
:102E3000DFF8E8331A600122DFF8E4331A6000BFDC
:102E40000022DFF8DC331A604000E4E7704738B551
:102E500004000D00B5F15000C0B2FFF7D3FFE4B29B
:102E6000200950F01000C0B2FFF7CCFF14F00F00A3
:102E700050F00100C0B2FFF7C5FF31BD70B50400CE
:102E800000200500EDB2082D17DAB5F15000C0B2F0
:102E9000FFF7B8FF0120FFF7B5FF1020FFF7B2FFE3
:102EA00000200600F6B2802E05DA2000C0B2FFF73F
:102EB00083FF761CF6E76D1CE4E770BD80B2002846
:102EC00009D04FF47A5211000A00511E92B2002A22
:102ED000FAD1401EF2E7704780B50122012150204F
:102EE000FFF7D6FE012201215120FFF7D1FE01227A
:102EF00001215220FFF7CCFE012201215320FFF7D0
:102F0000C7FE002201210E20FFF7C2FE0120DFF8DC
:102F1000101308600020DFF80C1308600020DFF8B1
:102F2000081308603220FFF7C9FF0120DFF8F8120C
:102F30000860AE20FFF766FF0020FFF763FF102058
:102F4000FFF760FF4020FFF75DFF8120FFF75AFF8A
:102F5000CF20FFF757FFA120FFF754FFC820FFF74E
:102F600051FFA620FFF74EFFA820FFF74BFF3F20A1
:102F7000FFF748FFD320FFF745FF0020FFF742FF90
:102F8000D520FFF73FFF8020FFF73CFFD920FFF758
:102F900039FFF120FFF736FFDA20FFF733FF122069
:102FA000FFF730FFDB20FFF72DFF4020FFF72AFF60
:102FB0002020FFF727FF0220FFF724FF8D20FFF7D7
:102FC00021FF1420FFF71EFFA420FFF71BFFA62000
:102FD000FFF718FFAF20FFF715FF0020FFF74EFFA8
:102FE00000210020FFF733FF01BD2DE9F843040065
:102FF0000D00160000275FF000085FF000095FFA7F
:1030000089F919F8060000282BD05FFA89F919F818
:10301000060020380700E4B27F2C02DB0020040009
:103020006D1C2900C9B22000C0B2FFF710FF0020BC
:1030300080465FFA88F8B8F1060F0EDA5FFA88F872
:10304000FFB20620DFF8E41100FB071018F80000BB
:10305000FFF7B2FE18F10108EBE7A41D19F1010911
:10306000CDE7BDE8F183F0B583B004000D00160094
:1030700000A80021002206C0083836B2002E05D56F
:103080002D208DF8000036B2764202E02B208DF81C
:10309000000036B24FF47A7096FBF0F08DF8010024
:1030A00036B2642096FBF0F00A2190FBF1F201FBAE
:1030B00012008DF8020036B2642096FBF0F100FB9E
:1030C00011600A2190FBF1F08DF8030036B20A205E
:1030D00096FBF0F100FB11608DF804000027FFB2B1
:1030E000052F80F27F80FFB200A83856002816D046
:1030F00001281CD0022822D0032828D004282ED052
:10310000052834D006283AD0072840D0082846D0D1
:1031100009284CD02B285AD02D2850D05FE032A25D
:103120002900C9B22000C0B2FFF75FFF57E02FA20D
:103130002900C9B22000C0B2FFF757FF4FE02CA210
:103140002900C9B22000C0B2FFF74FFF47E029A213
:103150002900C9B22000C0B2FFF747FF3FE026A216
:103160002900C9B22000C0B2FFF73FFF37E023A219
:103170002900C9B22000C0B2FFF737FF2FE020A21C
:103180002900C9B22000C0B2FFF72FFF27E01DA21F
:103190002900C9B22000C0B2FFF727FF1FE01AA222
:1031A0002900C9B22000C0B2FFF71FFF17E017A225
:1031B0002900C9B22000C0B2FFF717FF0FE014A228
:1031C0002900C9B22000C0B2FFF70FFF07E011A22B
:1031D0002900C9B22000C0B2FFF707FFFFE7A41D16
:1031E0007F1C7CE7F7BD00003000000031000000CC
:1031F0003200000033000000340000003500000001
:1032000036000000370000003800000039000000E0
:103210002D0000002B0000004C10FE434410FE4324
:103220004010FE433800FE434810FE433C3D000082
:10323000DFF800F0C10DFF1F40B2DFF8B41331F822
:10324000201040B20128C0F2788140B2162880F2E6
:1032500074810022DFF89C331A7089B2652904DA80
:103260000022DFF890335A707DE089B2C92904DA70
:103270000122DFF880335A7075E089B2B1F5967F8C
:1032800004DC0222DFF86C335A706CE089B2B1F5CD
:10329000C87F04DC0322DFF85C335A7063E089B234
:1032A000B1F5FA7F04DC0422DFF848335A705AE0A3
:1032B00089B2B1F5167F04DC0522DFF838335A7085
:1032C00051E089B2B1F52F7F04DC0622DFF8243308
:1032D0005A7048E089B2B1F5487F04DC0722DFF874
:1032E00014335A703FE089B2B1F5617F04DC0822E3
:1032F000DFF800335A7036E089B2B1F57A7F04DC2A
:103300000922DFF8F0325A702DE089B240F24D42C6
:10331000914203DA0A22B74B5A7024E089B2B1F520
:10332000966F03DC0B22B34B5A701CE089B240F25B
:103330001552914203DA0C22AE4B5A7013E089B257
:10334000B1F5AF6F03DC0D22AA4B5A700BE089B2C6
:1033500040F2DD52914203DA0E22A64B5A7002E08F
:103360000F22A44B5A7089B2332903DA0022A14BF1
:103370009A7071E089B2652903DA01229D4B9A7037
:103380006AE089B2972903DA02229A4B9A7063E0C5
:1033900089B2C92903DA0322964B9A705CE089B29C
:1033A000FB2903DA0422934B9A7055E089B2B1F5F8
:1033B000967F03DC05228F4B9A704DE089B2B1F500
:1033C000AF7F03DC06228B4B9A7045E089B2B1F5E2
:1033D000C87F03DC0722874B9A703DE089B2B1F5C4
:1033E000E17F03DC0822834B9A7035E089B2B1F5A6
:1033F000FA7F03DC09227F4B9A702DE089B240F2FC
:103400002722914203DA0A227A4B9A7024E089B289
:10341000B1F5167F03DC0B22764B9A701CE089B263
:1034200040F28B22914203DA0C22724B9A7013E025
:1034300089B2B1F52F7F03DC0D226E4B9A700BE041
:1034400089B240F2EF22914203DA0E22694B9A7060
:1034500002E00F22674B9A7089B21A2903DA002220
:10346000644BDA7069E089B2332903DA0122614BD7
:10347000DA7062E089B24C2903DA02225D4BDA701D
:103480005BE089B2652903DA03225A4BDA7054E013
:1034900089B27E2903DA0422564BDA704DE089B2F4
:1034A000972903DA0522534BDA7046E089B2B02936
:1034B00003DA06224F4BDA703FE089B2C92903DAFA
:1034C00007224C4BDA7038E089B2E22903DA08228D
:1034D000484BDA7031E089B2FB2903DA0922454B07
:1034E000DA702AE089B2B1F58A7F03DA0A22414B09
:1034F000DA7022E089B2B1F5967F03DC0B223D4BF6
:10350000DA701AE089B2B1F5A37F03DA0C22394BE5
:10351000DA7012E089B2B1F5AF7F03DC0D22354BD2
:10352000DA700AE089B2B1F5BC7F03DA0E22314BC2
:10353000DA7002E00F222F4BDA70704710B50400EA
:10354000200040B2FFF778FE2B48007810F0FD0015
:10355000294908702848007850F010002649087062
:10356000B8202649087026480078C006FBD42448B5
:103570000078C0F38100C0B20228F8D11D48C3789A
:103580001C4882781B4841781A480078FFF750FEA3
:1035900064B2174810EB8400807810F007001949D6
:1035A000087064B2124810EB8400C07810F01F005D
:1035B00050F0400014490870114800788006FBD58F
:1035C0000F4800784006FBD50C48007810F03F000B
:1035D0000A4908700A480078C0F38100C0B2032885
:1035E000F8D164B2024830F82400C0B210BD000027
:1035F0004C0BFF1FA40BFF1F01400640004006407C
:10360000064006400440064005400640012110F0F7
:103610001F02914040B24209A64B43F82210704766
:1036200080B50320A44948600820A3490860A34846
:10363000007880B24000A249088040F24A60A14967
:10364000088040F20A509F494880FFF745FC9E4899
:103650000068322101FB00F1002000F063F90FF255
:103660002D21542000F0ADF94420FFF7CFFF0FF2D9
:1036700095213F2000F0A5F90120FFF798FA2D20B1
:1036800000F0B6F92A2000F0B3F92C2000F0B0F9D0
:103690002B2000F0ADF940F2AA5364220021032050
:1036A000FEF762FE322342F2107201210020FEF783
:1036B0005BFE502342F2107200210020FEF754FE00
:1036C000322342F2107203210020FEF74DFE5023F8
:1036D00042F2107202210020FEF746FEFEE710B50E
:1036E00000200400E4B2032C3BDA784A00210020D9
:1036F000FFF77BFC764A01210020FFF776FC754836
:10370000B0F9002000211E20FFF7ADFC7148B0F990
:10371000022001211E20FFF7A6FC6F4A0221002093
:10372000FFF763FC6B48B0F9042002211E20FFF76D
:103730009AFC6A4A03210020FFF757FC6548B0F95C
:10374000062003211E20FFF78EFC654A042100207D
:10375000FFF74BFC634A05210020FFF746FC641E7F
:10376000C0E710BD80B56048028801210020FEF747
:10377000D2FE322200210020FEF7CDFE5B480288F7
:1037800003210020FEF7C7FE322202210020FEF7AF
:10379000C2FE5748028800210320FEF7BCFE01BD8F
:1037A00080B500212A2000F02AFA4A490880002129
:1037B0002D2000F024FA47494880464800884549B2
:1037C000498808184B4908804248B0F9000041492F
:1037D000B1F90210401A0A2190FBF1F04649088025
:1037E0004548B0F900000C30444908804248B0F91F
:1037F00000000A280DDB07202F49086003202E490E
:1038000048604FF4967038490880C82037490880CE
:1038100021E03948B0F9000010F1090F0DDA072056
:1038200025490860032024494860C8202E490880A3
:103830004FF496702D4908800DE007201E4908605E
:1038400003201D4948604FF49670274908804FF4C3
:103850009670264908801F48B0F900004E2804DB06
:103860002448B0F90000FA2802DA0320234908802E
:103870001848B0F902004E2804DB1E48B0F90000D9
:10388000FA2802DA15201D49088001BD80B5FFF72E
:1038900087FF1A48008800F007FA15490880FFF7EB
:1038A00061FFFFF71CFF1648006850F00100144943
:1038B000086001BD00E100E0280EFF1F1204FF1F99
:1038C0009E0EFF1F3C0EFF1F480EFF1F7C4700008F
:1038D00084470000100EFF1F8C4700009447000033
:1038E00058470000644700001404FF1F1604FF1F20
:1038F0001004FF1FA20EFF1FA00EFF1F9C0EFF1F34
:103900000C71034080B500A90120FFF734F99DF93F
:103910000000612804D19DF900100120FFF73AF959
:1039200001BD000038B504000D00002D03D1222197
:103930001748FEF7FAFE1748006850F400001549D2
:103940000860002014490860681E64B22101134A0F
:10395000885064B2114810EB0410C06850F00100A8
:1039600064B20E4911EB0411C86064B20B4810EB4D
:10397000041080684008400064B2084911EB04114B
:103980008860032064B2054911EB0411886031BDE1
:10399000444500003C800440007003400071034037
:1039A00010B504004FF4007094FBF0F101FB1041DE
:1039B000002903D01E210B48FEF7B7FE0A48046019
:1039C00010BD38B504000D0007480068074988425B
:1039D00003D030210348FEF7A8FE64B2034840F844
:1039E000245031BDAC45000008ED00E00000FF1F91
:1039F00038B5040064B26511EDB2002D02D0012D7E
:103A000011D021E0A348006850F00060A14908608F
:103A1000A148006830F090009F4908609E48006807
:103A20009D49086014E09D48006850F000609B4983
:103A300008609948006830F410409749086096483B
:103A400000689549086003E033219548FEF76DFE54
:103A500064B22000002800F08980012800F08680F0
:103A6000032800F0838008284ED0092851D00A2866
:103A700054D00B2857D00C285AD00D285DD00E28D2
:103A800060D00F2863D0102870D0112864D012287D
:103A900067D013286AD0142868D01A2866D01D2849
:103AA00064D01E2862D0202861D021285FD023282E
:103AB0005DD024285CD025285FD0262862D0272816
:103AC00065D0282868D029286BD02A286ED02B28CA
:103AD00071D02C2874D02D2877D02E287AD02F287A
:103AE0007DD0302800F0858031287DD0322800F04C
:103AF000808033287DD034287BD03A2879D03D2867
:103B000077D03E2875D075E000212020FEF7A0FD7B
:103B100074E000212120FEF79BFD6FE000210720CB
:103B2000FEF796FD6AE000210820FEF791FD65E0B2
:103B300000212220FEF78CFD60E000212320FEF70B
:103B400087FD5BE000214020FEF782FD56E000216A
:103B50004120FEF77DFD51E000219820FEF778FD21
:103B60004CE000219920FEF773FD47E046E045E078
:103B700000218020FEF76CFD40E000218120FEF74F
:103B800067FD3BE000218220FEF762FD36E0002168
:103B90008320FEF75DFD31E000212020FEF758FD77
:103BA0002CE000212120FEF753FD27E000212420F6
:103BB000FEF74EFD22E000212520FEF749FD1DE025
:103BC00000212620FEF744FD18E000212720FEF703
:103BD0003FFD13E000212A20FEF73AFD0EE0002110
:103BE0002B20FEF735FD09E000211120FEF730FD06
:103BF00004E003E09A212A48FEF797FD31BDF8B5AD
:103C000004000D0064B266110027290049B22000AB
:103C100040B200F01CF876B2224850F82600006846
:103C20000006F8D576B21F4850F826000069070054
:103C300076B21C4850F82600006830F0800076B25A
:103C4000184951F826100860380080B2F2BD30B42F
:103C500040B2421110F01F0349B28C0014F00C0462
:103C600054F0500452B20F4D55F82250AC60042469
:103C700052B20C4D55F82250EC60DBB213F01F0429
:103C800054F0400452B2074D55F822502C6030BC1D
:103C9000704700003C80044018800440308004409D
:103CA000744400001804FF1FF0B501000022002337
:103CB0000A001E4D2D886D1A2B0092B29BB2D51AA8
:103CC0001B4E35601B4D2D68194E3668194F7F68A5
:103CD000DFF85CC0DCF800C0DFF854E0DEF804E098
:103CE000BCEB0E0C0CFB07F706FB05752C00104D0A
:103CF0006D680F4EB5600E4D2D680D4E756004F267
:103D0000AA5528000C4D2D8800B2854203DA0A4DD1
:103D1000B5F90050280000B2074D6D88A84203DABB
:103D2000054DB5F90250280000B2F0BD9E0EFF1FF0
:103D3000300EFF1F280EFF1F3C0EFF1F000000006B
:103D400000000000002F0000000007000700001422
:103D50007F147F1400242A7F2A1200626408132330
:103D600000364955225000000503000000001C22C7
:103D70004100000041221C000014083E0814000805
:103D8000083E0808000000A06000000808080808B5
:103D9000000060600000002010080402003E51494D
:103DA000453E0000427F40000042615149460021EB
:103DB00041454B31001814127F1000274545453905
:103DC000003C4A4949300001710905030036494960
:103DD000493600064949291E000036360000000019
:103DE0005636000000081422410000141414141464
:103DF000000041221408000201510906003249590D
:103E0000513E007C1211127C007F49494936003E28
:103E100041414122007F4141221C007F49494941E3
:103E2000007F09090901003E4149497A007F0808DD
:103E3000087F0000417F4100002040413F01007F9A
:103E400008142241007F40404040007F020C027F66
:103E5000007F0408107F003E4141413E007F090978
:103E60000906003E4151215E007F0919294600469E
:103E7000494949310001017F0101003F4040403F75
:103E8000001F2040201F003F4038403F00631408BF
:103E9000146300070870080700615149454300009A
:103EA0007F41410000552A552A55000041417F00BD
:103EB00000040201020400404040404000000102B2
:103EC0000400002054545478007F4844443800389B
:103ED0004444442000384444487F00385454541823
:103EE00000087E0901020018A4A4A47C007F080435
:103EF00004780000447D4000004080847D00007F05
:103F0000102844000000417F4000007C0418047821
:103F1000007C0804047800384444443800FC24241D
:103F200024180018242418FC007C08040408004805
:103F30005454542000043F444020003C4040207C26
:103F4000001C2040201C003C4030403C0044281015
:103F50002844001CA0A0A07C004464544C441414C9
:103F600014141414DFF800F02B270000DFF800F021
:103F70001B290000F02054490870534800780006BF
:103F8000FBD5514800787121084201D0002000E0A3
:103F90000120704780B54D48006850F400204B491F
:103FA0000860494800780006FBD5F02046490870B3
:103FB0000A20FFF7DBFF01BD10B582B00400A4B2F8
:103FC0004FF4805000FB04F0009009204049087035
:103FD0009DF802003F4908709DF801003E490870B5
:103FE0009DF800003D490870FFF7C4FF002801D18B
:103FF00000200EE0A4B2002C0AD15FF0FF327FF067
:1040000001034FF48161200080B200F003F800E06A
:10401000012016BDF0B583B006000F0014001D008E
:10402000B6B24FF48050BFB200FB06700190BFB231
:10403000082097FBF0F101FB1071002903D0EA2161
:104040002748FFF78FFFBFB2B7F5805F03DDEC2194
:104050002348FFF787FF9DF806001E4908709DF86A
:1040600005001D4908709DF804001C490870009463
:104070009DF803001B4908709DF802001A4908705A
:104080009DF80100194908709DF800001849087052
:1040900007200F49087000959DF803001549087026
:1040A0009DF80200144908709DF80100134908703A
:1040B0009DF8000012490870FFF75CFF002801D14D
:1040C000002000E00120FEBD0000024004F001409D
:1040D00007000240060002400500024004000240C2
:1040E000C44200000B0002400A00024009000240E6
:1040F000080002400F0002400E0002400D00024086
:104100000C000240F0B4114E366834000F4E366891
:1041100056F47F060D4F3E600E0616F0706656EAA6
:104120000076170517F470073E431F0417F4702735
:104130003E43074F3E6000263500EDB29D4201D25E
:104140006D1CFAE7014E3460F0BC704700F001408E
:104150004480044080B500F095F800F02AF800F0A3
:104160000AF8FEF7FFFA012201210420FEF790FD74
:10417000FFF756FAFEE780B50C20FFF7DFF9334969
:104180000860324800684FF47A714843304908604B
:104190002F4800682F490968C1F30361491CB0FB2F
:1041A000F1F02D4908604FF416510120FEF7D7FBBE
:1041B00001BD2DE9F8432948294988420DD0002046
:1041C0008046B8F5826F08D2254850F82800234968
:1041D00041F8280018F10108F3E72048FFF7E0FB59
:1041E000204807002048060020480400A01B804605
:1041F0004046B0F10108002804D030783870761CB1
:104200007F1CF5E71A4881461A480500B5EB0900FE
:1042100080464046B0F10108002805D0002089F80A
:10422000000019F10109F4E713481449144A531A1C
:1042300098464346B3F10108002B04D00B78037075
:10424000491C401CF5E7BDE8F1830000440EFF1F48
:10425000400EFF1F44800440480EFF1F0000FF1F58
:10426000000000001004FF1FA8190000BC2100007E
:10427000100EFF1FA40EFF1F200CFF1F643F000045
:104280005441000080B500F008F80C4800884FF653
:10429000FE7108400949088001BDEFF3118072B634
:1042A0004CF22051064A11804DF62811044A118023
:1042B000C0B2002800D162B670470000002005405F
:1042C0000E200540453A5CB7C9CBBCBFA8B6FB5C25
:1042D000B6F7D6C7C6D65CC9BDCDE24B3630B2CE36
:1042E000BFBCB4FAC2EB56352E33A3A8D6A7B3D6BB
:1042F0004658A1A2464EBACD444E5AA3A95CCAE97B
:10430000CDE2B5C4B2CEBFBCC0FDB3CC5C4C43441F
:104310005FC9E3CFF1CDB75C436869705C737263CA
:104320005C4D4B36305F666C6173682E6300000035
:10433000453A5CB7C9CBBCBFA8B6FB5CB6F7D6C7DD
:10434000C6D65CC9BDCDE24B3630B2CEBFBCB4FAE6
:10435000C2EB56352E33A3A8D6A7B3D64658A1A292
:10436000464EBACD444E5AA3A95CCAE9CDE2B5C4C3
:10437000B2CEBFBCC0FDB3CC5C4C43445FC9E3CFFD
:10438000F1CDB75C436869705C7372635C4D4B360A
:10439000305F6770696F2E6300000000453A5CB7BC
:1043A000C9CBBCBFA8B6FB5CB6F7D6C7C6D65CC93E
:1043B000BDCDE24B3630B2CEBFBCB4FAC2EB5635FF
:1043C0002E33A3A8D6A7B3D64658A1A2464EBACD3F
:1043D000444E5AA3A95CCAE9CDE2B5C4B2CEBFBC73
:1043E000C0FDB3CC5C4C43445FC9E3CFF1CDB75CB7
:1043F000436869705C7372635C4D4B36305F537910
:10440000735469636B2E6300453A5CB7C9CBBCBF7C
:10441000A8B6FB5CB6F7D6C7C6D65CC9BDCDE24B25
:104420003630B2CEBFBCB4FAC2EB56352E33A3A899
:10443000D6A7B3D64658A1A2464EBACD444E5AA3EB
:10444000A95CCAE9CDE2B5C4B2CEBFBCC0FDB3CC55
:104450005C4C43445FC9E3CFF1CDB75C43686970FE
:104460005C7372635C4D4B36305F756172742E63A2
:1044700000000000453A5CB7C9CBBCBFA8B6FB5CE6
:10448000B6F7D6C7C6D65CC9BDCDE24B3630B2CE84
:10449000BFBCB4FAC2EB56352E33A3A8D6A7B3D609
:1044A0004658A1A2464EBACD444E5AA3A95CCAE9C9
:1044B000CDE2B5C4B2CEBFBCC0FDB3CC5C4C43446E
:1044C0005FC9E3CFF1CDB75C436869705C73726319
:1044D0005C4D4B36305F6164632E6300453A5CB7D8
:1044E000C9CBBCBFA8B6FB5CB6F7D6C7C6D65CC9FD
:1044F000BDCDE24B3630B2CEBFBCB4FAC2EB5635BE
:104500002E33A3A8D6A7B3D64658A1A2464EBACDFD
:10451000444E5AA3A95CCAE9CDE2B5C4B2CEBFBC31
:10452000C0FDB3CC5C4C43445FC9E3CFF1CDB75C75
:10453000436869705C7372635C4D4B36305F6674C0
:104540006D2E6300453A5CB7C9CBBCBFA8B6FB5C17
:10455000B6F7D6C7C6D65CC9BDCDE24B3630B2CEB3
:10456000BFBCB4FAC2EB56352E33A3A8D6A7B3D638
:104570004658A1A2464EBACD444E5AA3A95CCAE9F8
:10458000CDE2B5C4B2CEBFBCC0FDB3CC5C4C43449D
:104590005FC9E3CFF1CDB75C436869705C73726348
:1045A0005C4D4B36305F5049542E6300453A5CB742
:1045B000C9CBBCBFA8B6FB5CB6F7D6C7C6D65CC92C
:1045C000BDCDE24B3630B2CEBFBCB4FAC2EB5635ED
:1045D0002E33A3A8D6A7B3D64658A1A2464EBACD2D
:1045E000444E5AA3A95CCAE9CDE2B5C4B2CEBFBC61
:1045F000C0FDB3CC5C4C43445FC9E3CFF1CDB75CA5
:10460000436869705C7372635C6D6973632E6300E9
:104610000A2A2A2A2A64656661756C745F69737256
:1046200020656E7465726564206F6E2076656374B4
:104630006F722025642A2A2A2A2A0A0A2573204909
:104640006E746572727570740000000010B50749D1
:1046500079441831064C7C44163404E00A68081D7D
:10466000511888470146A142F8D110BD2C00000026
:1046700038000000417373657274696F6E20666163
:10468000696C656420696E202573206174206C69F3
:104690006E652025640A000063C9FFFF94000000D6
:1046A000100EFF1F000000000ABDF8D0D0BDE2CB05
:1046B000F8B2D9D7F7A3ACC7EBD6D8D0C2CBA2C833
:1046C000EBB9CCBCFE0000004EF68851CEF20001E2
:1046D000086840F4700008604FF00070E1EE100AC6
:1046E0007047000000F00BF8002801D0FFF7AEFF84
:1046F0000020C046C046FEF793FF00F002F80120FC
:10470000704700F001B800000746384600F002F894
:10471000FBE7000001491820ABBEFBE726000200C2
:1047200038B504460D46284600F006F8A84218BFE2
:104730000024204632BD00000149FEF709B800BF41
:10474000E00BFF1F0ABDF8C8EBCBC0D1ADBBB7B5BE
:10475000C8B4FDA3A1000000736572766F70642E6B
:10476000703A0000736572766F70642E643A0000D0
:10477000C046C046FFF7A8FFFFF7B4FF76616C7232
:10478000303A000076616C72313A000076616C72EA
:10479000323A000076616C72333A0000000000008B
:1047A0000000000000000000000000000000000009
:1047B0000000000000000000FFFFFFFFFFFFFFFF01
:1047C00000000000000000000000000000000000E9
:1047D00000000000000000000000000000000000D9
:1047E00000000000FFFFFFFFFFFF000000000000CF
:1047F00000000000000000000000000000000000B9
:1048000000000000000000000000000000000000A8
:104810000000000000000000000000000000000098
:044820000000000094
:04000005000047713F
:00000001FF
